:040000000C94390023
:100004000C9410010C9400000C9400000C9400005B
:100014000C9400000C9400000C9400000C94540107
:100024000C9400000C9400000C947B000C940000D1
:100034000C9400000C9400000C9400000C9400003C
:100044000C9400000C9400000C9400000C9400002C
:100054001027E80364000A000100001000011000EA
:100064000100F000BE000400080066000000F894DF
:10007400EE27ECBBF1E0FBBFEBBFE5BFF8E1F1BD60
:10008400E1BD8DE0A2E0BB27ED938A95E9F780E01E
:1000940094E0A0E6ED930197E9F7EAE6F0E08591B4
:1000A4009591009761F0A591B59105901590BF01C8
:1000B400F00105900D920197E1F7FB01F0CFEFE518
:1000C400EDBFE4E0EEBFC0E6D1E00C946F01E8813F
:1000D400E7B98BE18A95F1F7369A349BFECF349ACF
:1000E400E4B1F5B104C05D9BFECFE881ECB9219683
:1000F4000895EA93FA93EFB7EA931A931CB1113374
:1001040009F4A89A113709F4A898123309F4A99AA2
:10011400173709F4A998133309F4AA9A153609F480
:10012400AA98143309F4AB9A123709F4AB9815332F
:1001340009F4AC9A143709F4AC98163309F4AD9A5F
:10014400193709F4AD98173309F4AE9A153709F441
:10015400AE98183309F4AF9A193609F4AF981837E2
:1001640011F4CC24DD24133619F4E1E0F0E06F013E
:10017400113631F4E0EFF0E04F01EEEBF0E05F0117
:10018400133731F4E1EEF0E04F01ECE7F0E05F010A
:10019400143631F4E2EDF0E04F01EAE3F0E05F0100
:1001A400163631F4E2ECF0E04F01E8EFF0E05F01E5
:1001B400173631F4E3EBF0E04F01E4EBF0E05F01DC
:1001C400183631F4E3EAF0E04F01E3E7F0E05F01D1
:1001D4001A3631F4E5E9F0E04F01E1E3F0E05F01C4
:1001E4001B3631F4E5E8F0E04F01EFEEF0E05F019B
:1001F4001C3631F4E6E7F0E04F01EBEAF0E05F0192
:100204001A3731F4E7E6F0E04F01EEEBF0E05F017E
:100214001991E991EFBFF991E99118950A921A920F
:10022400FA926A937A938A939A93AA93BA93EA93E3
:10023400FA93EFB7EA93E0916C01F0916D0160914C
:100244006E0170916F01EF5FFF4F6F4F7F4FE0932F
:100254006C01F0936D0160936E0170936F010E94C5
:10026400F601E4E6F0E060E070E00E947602DF016F
:10027400CB010E94FF010E9451022F010E94F6014E
:100284000E9404020E941202E991EFBFF991E991E0
:10029400B991A9919991899179916991F99019905C
:1002A400099018950A92EA93FA93EFB7EA930C2C03
:1002B4000D2809F4C198E1E0F0E0EC15FD0539F4EE
:1002C400C19B02C0C19801C0C19A8DBCACBCE9916C
:1002D400EFBFF991E99109901895E0E0EBBBEABB17
:1002E400E8BBE7BBE5BBEFEFE4BBE0E0E2BBEEEF6E
:1002F400E1BBE0E0E3BFE2BFECBFE5E0EEBDE4E07C
:10030400E9BF8DBCACBCE0E0E2BDE5BDE4BDE3BD4E
:10031400EBB7E064EBBFE2E0E5BFE0E0E4BFE0E4BC
:10032400EABFE0E0EBB9E6E8E0BDE8E9EAB9E0E01D
:10033400E0BDE3E3E9B9E0E8E8B9E0E0E0BFE7B94C
:10034400E3E8E6B9E0E0EDB9E6BFEBB7E06CEBBF9C
:10035400EFE0E5BF7894E0E0EA93B9DE662777271B
:10036400E0936001F0936101609362017093630113
:10037400A8E8B3E180E090E00E943102DF01CB0104
:10038400EFEFF3E060E070E00E945102E093680157
:10039400F093690160936A0170936B01A091680105
:1003A400B091690180916A0190916B010E94FF01F3
:1003B4000E945102E0936401F09365016093660129
:1003C400709367010E941C020E94FF010E94510267
:1003D4002F010E941C020E940402EAE0EA9383DED9
:1003E4000E941202B8CFFFCFA0916C01B0916D01B1
:1003F40080916E0190916F010895EAE0F0E060E071
:1004040070E00895FADF0E9476023F01E42DE05D7A
:10041400EA930E947500E62DE05DEA930C94750062
:10042400EDE0EA930E947500E8ECF0E0FA93EA93B9
:100434000C942502A0916401B0916501809166013C
:10044400909167010895E991F991309639F080ED22
:1004540097E00197F1F7A8953197C9F708957A9F26
:10046400702D6B9F700DF89F700DE99F700D6A9F42
:10047400602D710DFB9F600D711DE89F600D711D56
:100484008827FA9FF02D610D781FEB9FF00D611DF9
:10049400781FEA9FE02DF10D681F781F08953F93A0
:1004A4004F935F93002411244427552730E2AA0F69
:1004B400BB1F881F991F001C111C441F551F0E1AB7
:1004C4001F0A460B570B28F40E0E1F1E461F571FFC
:1004D40001C0A1603A9559F7FD01BC01D001CA01E0
:1004E4005F914F913F910895DADFFD01BC010895BA
:00000001FF
